{
  "_format": "hh-sol-artifact-1",
  "contractName": "Healthcare",
  "sourceName": "contracts/Healthcare.sol",
  "abi": [
    {
      "anonymous": false,
      "inputs": [
        {
          "indexed": true,
          "internalType": "address",
          "name": "patient",
          "type": "address"
        },
        {
          "indexed": true,
          "internalType": "address",
          "name": "accessor",
          "type": "address"
        },
        {
          "indexed": false,
          "internalType": "enum Healthcare.Role",
          "name": "accessorRole",
          "type": "uint8"
        },
        {
          "indexed": false,
          "internalType": "bool",
          "name": "granted",
          "type": "bool"
        }
      ],
      "name": "AccessChanged",
      "type": "event"
    },
    {
      "anonymous": false,
      "inputs": [
        {
          "indexed": true,
          "internalType": "uint256",
          "name": "id",
          "type": "uint256"
        },
        {
          "indexed": false,
          "internalType": "address",
          "name": "insurance",
          "type": "address"
        }
      ],
      "name": "ClaimApproved",
      "type": "event"
    },
    {
      "anonymous": false,
      "inputs": [
        {
          "indexed": true,
          "internalType": "uint256",
          "name": "id",
          "type": "uint256"
        },
        {
          "indexed": false,
          "internalType": "address",
          "name": "insurance",
          "type": "address"
        }
      ],
      "name": "ClaimRejected",
      "type": "event"
    },
    {
      "anonymous": false,
      "inputs": [
        {
          "indexed": true,
          "internalType": "uint256",
          "name": "id",
          "type": "uint256"
        },
        {
          "indexed": false,
          "internalType": "address",
          "name": "pharmacist",
          "type": "address"
        }
      ],
      "name": "ClaimSubmitted",
      "type": "event"
    },
    {
      "anonymous": false,
      "inputs": [
        {
          "indexed": true,
          "internalType": "address",
          "name": "patient",
          "type": "address"
        },
        {
          "indexed": false,
          "internalType": "string",
          "name": "cid",
          "type": "string"
        }
      ],
      "name": "MedicalRecordAdded",
      "type": "event"
    },
    {
      "anonymous": false,
      "inputs": [
        {
          "indexed": true,
          "internalType": "uint256",
          "name": "id",
          "type": "uint256"
        },
        {
          "indexed": false,
          "internalType": "address",
          "name": "patient",
          "type": "address"
        },
        {
          "indexed": false,
          "internalType": "address",
          "name": "doctor",
          "type": "address"
        }
      ],
      "name": "PrescriptionCreated",
      "type": "event"
    },
    {
      "anonymous": false,
      "inputs": [
        {
          "indexed": true,
          "internalType": "uint256",
          "name": "id",
          "type": "uint256"
        },
        {
          "indexed": false,
          "internalType": "address",
          "name": "pharmacist",
          "type": "address"
        }
      ],
      "name": "PrescriptionDispensed",
      "type": "event"
    },
    {
      "anonymous": false,
      "inputs": [
        {
          "indexed": true,
          "internalType": "address",
          "name": "user",
          "type": "address"
        },
        {
          "indexed": false,
          "internalType": "enum Healthcare.Role",
          "name": "role",
          "type": "uint8"
        }
      ],
      "name": "Registered",
      "type": "event"
    },
    {
      "inputs": [
        {
          "internalType": "address",
          "name": "",
          "type": "address"
        },
        {
          "internalType": "address",
          "name": "",
          "type": "address"
        }
      ],
      "name": "accessGranted",
      "outputs": [
        {
          "internalType": "bool",
          "name": "",
          "type": "bool"
        }
      ],
      "stateMutability": "view",
      "type": "function"
    },
    {
      "inputs": [
        {
          "internalType": "string",
          "name": "_cid",
          "type": "string"
        }
      ],
      "name": "addMedicalRecord",
      "outputs": [],
      "stateMutability": "nonpayable",
      "type": "function"
    },
    {
      "inputs": [
        {
          "internalType": "uint256",
          "name": "_id",
          "type": "uint256"
        }
      ],
      "name": "approveClaim",
      "outputs": [],
      "stateMutability": "nonpayable",
      "type": "function"
    },
    {
      "inputs": [
        {
          "internalType": "address",
          "name": "_patient",
          "type": "address"
        },
        {
          "internalType": "string",
          "name": "_med",
          "type": "string"
        }
      ],
      "name": "createPrescription",
      "outputs": [],
      "stateMutability": "nonpayable",
      "type": "function"
    },
    {
      "inputs": [
        {
          "internalType": "address",
          "name": "",
          "type": "address"
        },
        {
          "internalType": "uint256",
          "name": "",
          "type": "uint256"
        }
      ],
      "name": "doctorPatients",
      "outputs": [
        {
          "internalType": "address",
          "name": "",
          "type": "address"
        }
      ],
      "stateMutability": "view",
      "type": "function"
    },
    {
      "inputs": [
        {
          "internalType": "address",
          "name": "_patient",
          "type": "address"
        }
      ],
      "name": "getMedicalRecords",
      "outputs": [
        {
          "internalType": "string[]",
          "name": "",
          "type": "string[]"
        }
      ],
      "stateMutability": "view",
      "type": "function"
    },
    {
      "inputs": [],
      "name": "getMyPatients",
      "outputs": [
        {
          "internalType": "address[]",
          "name": "",
          "type": "address[]"
        }
      ],
      "stateMutability": "view",
      "type": "function"
    },
    {
      "inputs": [
        {
          "internalType": "address",
          "name": "_patient",
          "type": "address"
        }
      ],
      "name": "getPatientPrescriptions",
      "outputs": [
        {
          "internalType": "uint256[]",
          "name": "",
          "type": "uint256[]"
        }
      ],
      "stateMutability": "view",
      "type": "function"
    },
    {
      "inputs": [
        {
          "internalType": "uint256",
          "name": "_id",
          "type": "uint256"
        }
      ],
      "name": "getPrescription",
      "outputs": [
        {
          "internalType": "uint256",
          "name": "",
          "type": "uint256"
        },
        {
          "internalType": "address",
          "name": "",
          "type": "address"
        },
        {
          "internalType": "address",
          "name": "",
          "type": "address"
        },
        {
          "internalType": "string",
          "name": "",
          "type": "string"
        },
        {
          "internalType": "uint256",
          "name": "",
          "type": "uint256"
        },
        {
          "internalType": "enum Healthcare.PresStatus",
          "name": "",
          "type": "uint8"
        },
        {
          "internalType": "enum Healthcare.ClaimStatus",
          "name": "",
          "type": "uint8"
        }
      ],
      "stateMutability": "view",
      "type": "function"
    },
    {
      "inputs": [
        {
          "internalType": "address",
          "name": "_doctor",
          "type": "address"
        }
      ],
      "name": "grantDoctorAccess",
      "outputs": [],
      "stateMutability": "nonpayable",
      "type": "function"
    },
    {
      "inputs": [
        {
          "internalType": "address",
          "name": "_ins",
          "type": "address"
        }
      ],
      "name": "grantInsuranceAccess",
      "outputs": [],
      "stateMutability": "nonpayable",
      "type": "function"
    },
    {
      "inputs": [
        {
          "internalType": "address",
          "name": "_pharma",
          "type": "address"
        }
      ],
      "name": "grantPharmacistAccess",
      "outputs": [],
      "stateMutability": "nonpayable",
      "type": "function"
    },
    {
      "inputs": [
        {
          "internalType": "uint256",
          "name": "_id",
          "type": "uint256"
        }
      ],
      "name": "markAsDispensed",
      "outputs": [],
      "stateMutability": "nonpayable",
      "type": "function"
    },
    {
      "inputs": [
        {
          "internalType": "address",
          "name": "",
          "type": "address"
        },
        {
          "internalType": "uint256",
          "name": "",
          "type": "uint256"
        }
      ],
      "name": "medicalRecords",
      "outputs": [
        {
          "internalType": "string",
          "name": "",
          "type": "string"
        }
      ],
      "stateMutability": "view",
      "type": "function"
    },
    {
      "inputs": [
        {
          "internalType": "address",
          "name": "",
          "type": "address"
        },
        {
          "internalType": "uint256",
          "name": "",
          "type": "uint256"
        }
      ],
      "name": "patientDoctors",
      "outputs": [
        {
          "internalType": "address",
          "name": "",
          "type": "address"
        }
      ],
      "stateMutability": "view",
      "type": "function"
    },
    {
      "inputs": [
        {
          "internalType": "address",
          "name": "",
          "type": "address"
        },
        {
          "internalType": "uint256",
          "name": "",
          "type": "uint256"
        }
      ],
      "name": "patientInsurers",
      "outputs": [
        {
          "internalType": "address",
          "name": "",
          "type": "address"
        }
      ],
      "stateMutability": "view",
      "type": "function"
    },
    {
      "inputs": [
        {
          "internalType": "address",
          "name": "",
          "type": "address"
        },
        {
          "internalType": "uint256",
          "name": "",
          "type": "uint256"
        }
      ],
      "name": "patientPharmacists",
      "outputs": [
        {
          "internalType": "address",
          "name": "",
          "type": "address"
        }
      ],
      "stateMutability": "view",
      "type": "function"
    },
    {
      "inputs": [
        {
          "internalType": "address",
          "name": "",
          "type": "address"
        },
        {
          "internalType": "uint256",
          "name": "",
          "type": "uint256"
        }
      ],
      "name": "patientPrescriptions",
      "outputs": [
        {
          "internalType": "uint256",
          "name": "",
          "type": "uint256"
        }
      ],
      "stateMutability": "view",
      "type": "function"
    },
    {
      "inputs": [],
      "name": "prescriptionCount",
      "outputs": [
        {
          "internalType": "uint256",
          "name": "",
          "type": "uint256"
        }
      ],
      "stateMutability": "view",
      "type": "function"
    },
    {
      "inputs": [
        {
          "internalType": "uint256",
          "name": "",
          "type": "uint256"
        }
      ],
      "name": "prescriptions",
      "outputs": [
        {
          "internalType": "uint256",
          "name": "id",
          "type": "uint256"
        },
        {
          "internalType": "address",
          "name": "patient",
          "type": "address"
        },
        {
          "internalType": "address",
          "name": "doctor",
          "type": "address"
        },
        {
          "internalType": "string",
          "name": "medication",
          "type": "string"
        },
        {
          "internalType": "uint256",
          "name": "timestamp",
          "type": "uint256"
        },
        {
          "internalType": "enum Healthcare.PresStatus",
          "name": "status",
          "type": "uint8"
        },
        {
          "internalType": "enum Healthcare.ClaimStatus",
          "name": "claim",
          "type": "uint8"
        }
      ],
      "stateMutability": "view",
      "type": "function"
    },
    {
      "inputs": [],
      "name": "registerAsDoctor",
      "outputs": [],
      "stateMutability": "nonpayable",
      "type": "function"
    },
    {
      "inputs": [],
      "name": "registerAsInsurance",
      "outputs": [],
      "stateMutability": "nonpayable",
      "type": "function"
    },
    {
      "inputs": [],
      "name": "registerAsPatient",
      "outputs": [],
      "stateMutability": "nonpayable",
      "type": "function"
    },
    {
      "inputs": [],
      "name": "registerAsPharmacist",
      "outputs": [],
      "stateMutability": "nonpayable",
      "type": "function"
    },
    {
      "inputs": [
        {
          "internalType": "uint256",
          "name": "_id",
          "type": "uint256"
        }
      ],
      "name": "rejectClaim",
      "outputs": [],
      "stateMutability": "nonpayable",
      "type": "function"
    },
    {
      "inputs": [
        {
          "internalType": "address",
          "name": "_doctor",
          "type": "address"
        }
      ],
      "name": "revokeDoctorAccess",
      "outputs": [],
      "stateMutability": "nonpayable",
      "type": "function"
    },
    {
      "inputs": [
        {
          "internalType": "address",
          "name": "_ins",
          "type": "address"
        }
      ],
      "name": "revokeInsuranceAccess",
      "outputs": [],
      "stateMutability": "nonpayable",
      "type": "function"
    },
    {
      "inputs": [
        {
          "internalType": "address",
          "name": "_pharma",
          "type": "address"
        }
      ],
      "name": "revokePharmacistAccess",
      "outputs": [],
      "stateMutability": "nonpayable",
      "type": "function"
    },
    {
      "inputs": [
        {
          "internalType": "address",
          "name": "",
          "type": "address"
        }
      ],
      "name": "roles",
      "outputs": [
        {
          "internalType": "enum Healthcare.Role",
          "name": "",
          "type": "uint8"
        }
      ],
      "stateMutability": "view",
      "type": "function"
    },
    {
      "inputs": [
        {
          "internalType": "uint256",
          "name": "_id",
          "type": "uint256"
        }
      ],
      "name": "submitClaim",
      "outputs": [],
      "stateMutability": "nonpayable",
      "type": "function"
    }
  ],
  "bytecode": "0x608060405234801561001057600080fd5b50614e14806100206000396000f3fe608060405234801561001057600080fd5b50600436106101da5760003560e01c8063733ba56d11610104578063afd8297c116100a2578063dc74bada11610071578063dc74bada14610581578063e28a31a91461059d578063e5541c6d146105b9578063e671926a146105c3576101da565b8063afd8297c146104d3578063b655849814610503578063ca96672014610521578063dafe614e14610551576101da565b806397678a03116100de57806397678a031461044d578063993746421461047d578063a99ad4ee146104ad578063ad16a6c6146104b7576101da565b8063733ba56d146103d15780638a462e1a146104015780638a49b9cb14610431576101da565b806349e692991161017c5780636aa14a961161014b5780636aa14a96146103455780636ba7fe7f146103615780636f16af101461036b578063705e06e2146103a1576101da565b806349e69299146102bf5780634ac9e300146102db57806353b8ee001461030b578063670dde9d14610315576101da565b80633a3841d9116101b85780633a3841d91461024d5780633df95ab814610269578063441131c91461028557806346e30135146102a3576101da565b806312e0808f146101df57806320341101146101fb57806331dfc91b14610217575b600080fd5b6101f960048036038101906101f49190613fb1565b6105df565b005b610215600480360381019061021091906140ef565b610a1e565b005b610231600480360381019061022c91906140ef565b610d75565b6040516102449796959493929190614a14565b60405180910390f35b610267600480360381019061026291906140ef565b610e99565b005b610283600480360381019061027e9190613fb1565b6111f0565b005b61028d6113f1565b60405161029a919061474e565b60405180910390f35b6102bd60048036038101906102b891906140ef565b6115bc565b005b6102d960048036038101906102d49190613fb1565b611913565b005b6102f560048036038101906102f0919061406e565b611cb2565b604051610302919061470a565b60405180910390f35b610313611d00565b005b61032f600480360381019061032a919061406e565b611edc565b60405161033c919061470a565b60405180910390f35b61035f600480360381019061035a91906140ef565b611f2a565b005b610369612257565b005b610385600480360381019061038091906140ef565b612433565b6040516103989796959493929190614a14565b60405180910390f35b6103bb60048036038101906103b69190613fda565b612577565b6040516103c891906147b4565b60405180910390f35b6103eb60048036038101906103e6919061406e565b6125a6565b6040516103f891906149f9565b60405180910390f35b61041b60048036038101906104169190613fb1565b6125d7565b6040516104289190614792565b60405180910390f35b61044b60048036038101906104469190614016565b612837565b005b6104676004803603810190610462919061406e565b612d5b565b6040516104749190614837565b60405180910390f35b61049760048036038101906104929190613fb1565b612e14565b6040516104a491906147cf565b60405180910390f35b6104b5612e34565b005b6104d160048036038101906104cc9190613fb1565b613010565b005b6104ed60048036038101906104e89190613fb1565b6133ae565b6040516104fa9190614770565b60405180910390f35b61050b6135c5565b60405161051891906149f9565b60405180910390f35b61053b6004803603810190610536919061406e565b6135cb565b604051610548919061470a565b60405180910390f35b61056b6004803603810190610566919061406e565b613619565b604051610578919061470a565b60405180910390f35b61059b60048036038101906105969190613fb1565b613667565b005b6105b760048036038101906105b29190613fb1565b613868565b005b6105c1613a69565b005b6105dd60048036038101906105d891906140aa565b613c45565b005b600180600481111561061a577f4e487b7100000000000000000000000000000000000000000000000000000000600052602160045260246000fd5b6000803373ffffffffffffffffffffffffffffffffffffffff1673ffffffffffffffffffffffffffffffffffffffff16815260200190815260200160002060009054906101000a900460ff16600481111561069e577f4e487b7100000000000000000000000000000000000000000000000000000000600052602160045260246000fd5b146106de576040517f08c379a00000000000000000000000000000000000000000000000000000000081526004016106d5906149b9565b60405180910390fd5b60026004811115610718577f4e487b7100000000000000000000000000000000000000000000000000000000600052602160045260246000fd5b6000808473ffffffffffffffffffffffffffffffffffffffff1673ffffffffffffffffffffffffffffffffffffffff16815260200190815260200160002060009054906101000a900460ff16600481111561079c577f4e487b7100000000000000000000000000000000000000000000000000000000600052602160045260246000fd5b146107dc576040517f08c379a00000000000000000000000000000000000000000000000000000000081526004016107d390614939565b60405180910390fd5b6001600260003373ffffffffffffffffffffffffffffffffffffffff1673ffffffffffffffffffffffffffffffffffffffff16815260200190815260200160002060008473ffffffffffffffffffffffffffffffffffffffff1673ffffffffffffffffffffffffffffffffffffffff16815260200190815260200160002060006101000a81548160ff021916908315150217905550600360008373ffffffffffffffffffffffffffffffffffffffff1673ffffffffffffffffffffffffffffffffffffffff168152602001908152602001600020339080600181540180825580915050600190039060005260206000200160009091909190916101000a81548173ffffffffffffffffffffffffffffffffffffffff021916908373ffffffffffffffffffffffffffffffffffffffff160217905550600460003373ffffffffffffffffffffffffffffffffffffffff1673ffffffffffffffffffffffffffffffffffffffff168152602001908152602001600020829080600181540180825580915050600190039060005260206000200160009091909190916101000a81548173ffffffffffffffffffffffffffffffffffffffff021916908373ffffffffffffffffffffffffffffffffffffffff1602179055508173ffffffffffffffffffffffffffffffffffffffff163373ffffffffffffffffffffffffffffffffffffffff167f4b4f4a7018aa93cfbc56c507c1ad3b40f18153b6e51ee97628a7f57a2c1eac3160026001604051610a129291906147ea565b60405180910390a35050565b6004806004811115610a59577f4e487b7100000000000000000000000000000000000000000000000000000000600052602160045260246000fd5b6000803373ffffffffffffffffffffffffffffffffffffffff1673ffffffffffffffffffffffffffffffffffffffff16815260200190815260200160002060009054906101000a900460ff166004811115610add577f4e487b7100000000000000000000000000000000000000000000000000000000600052602160045260246000fd5b14610b1d576040517f08c379a0000000000000000000000000000000000000000000000000000000008152600401610b14906149b9565b60405180910390fd5b600060076000848152602001908152602001600020905060016003811115610b6e577f4e487b7100000000000000000000000000000000000000000000000000000000600052602160045260246000fd5b8160050160019054906101000a900460ff166003811115610bb8577f4e487b7100000000000000000000000000000000000000000000000000000000600052602160045260246000fd5b14610bf8576040517f08c379a0000000000000000000000000000000000000000000000000000000008152600401610bef90614959565b60405180910390fd5b600260008260010160009054906101000a900473ffffffffffffffffffffffffffffffffffffffff1673ffffffffffffffffffffffffffffffffffffffff1673ffffffffffffffffffffffffffffffffffffffff16815260200190815260200160002060003373ffffffffffffffffffffffffffffffffffffffff1673ffffffffffffffffffffffffffffffffffffffff16815260200190815260200160002060009054906101000a900460ff16610ce5576040517f08c379a0000000000000000000000000000000000000000000000000000000008152600401610cdc90614859565b60405180910390fd5b60038160050160016101000a81548160ff02191690836003811115610d33577f4e487b7100000000000000000000000000000000000000000000000000000000600052602160045260246000fd5b0217905550827f22fadfffa9b3978ef60c97c46a0e6c38040d03db462e6cec7e09cff08c0aa41433604051610d68919061470a565b60405180910390a2505050565b60076020528060005260406000206000915090508060000154908060010160009054906101000a900473ffffffffffffffffffffffffffffffffffffffff16908060020160009054906101000a900473ffffffffffffffffffffffffffffffffffffffff1690806003018054610dea90614c5b565b80601f0160208091040260200160405190810160405280929190818152602001828054610e1690614c5b565b8015610e635780601f10610e3857610100808354040283529160200191610e63565b820191906000526020600020905b815481529060010190602001808311610e4657829003601f168201915b5050505050908060040154908060050160009054906101000a900460ff16908060050160019054906101000a900460ff16905087565b6003806004811115610ed4577f4e487b7100000000000000000000000000000000000000000000000000000000600052602160045260246000fd5b6000803373ffffffffffffffffffffffffffffffffffffffff1673ffffffffffffffffffffffffffffffffffffffff16815260200190815260200160002060009054906101000a900460ff166004811115610f58577f4e487b7100000000000000000000000000000000000000000000000000000000600052602160045260246000fd5b14610f98576040517f08c379a0000000000000000000000000000000000000000000000000000000008152600401610f8f906149b9565b60405180910390fd5b600060076000848152602001908152602001600020905060006001811115610fe9577f4e487b7100000000000000000000000000000000000000000000000000000000600052602160045260246000fd5b8160050160009054906101000a900460ff166001811115611033577f4e487b7100000000000000000000000000000000000000000000000000000000600052602160045260246000fd5b14611073576040517f08c379a000000000000000000000000000000000000000000000000000000000815260040161106a90614979565b60405180910390fd5b600260008260010160009054906101000a900473ffffffffffffffffffffffffffffffffffffffff1673ffffffffffffffffffffffffffffffffffffffff1673ffffffffffffffffffffffffffffffffffffffff16815260200190815260200160002060003373ffffffffffffffffffffffffffffffffffffffff1673ffffffffffffffffffffffffffffffffffffffff16815260200190815260200160002060009054906101000a900460ff16611160576040517f08c379a000000000000000000000000000000000000000000000000000000000815260040161115790614919565b60405180910390fd5b60018160050160006101000a81548160ff021916908360018111156111ae577f4e487b7100000000000000000000000000000000000000000000000000000000600052602160045260246000fd5b0217905550827fcd763f1ff84f6f64899ca9dbfadb7ba5931c5f12587675542b3b5a036600758a336040516111e3919061470a565b60405180910390a2505050565b600180600481111561122b577f4e487b7100000000000000000000000000000000000000000000000000000000600052602160045260246000fd5b6000803373ffffffffffffffffffffffffffffffffffffffff1673ffffffffffffffffffffffffffffffffffffffff16815260200190815260200160002060009054906101000a900460ff1660048111156112af577f4e487b7100000000000000000000000000000000000000000000000000000000600052602160045260246000fd5b146112ef576040517f08c379a00000000000000000000000000000000000000000000000000000000081526004016112e6906149b9565b60405180910390fd5b6000600260003373ffffffffffffffffffffffffffffffffffffffff1673ffffffffffffffffffffffffffffffffffffffff16815260200190815260200160002060008473ffffffffffffffffffffffffffffffffffffffff1673ffffffffffffffffffffffffffffffffffffffff16815260200190815260200160002060006101000a81548160ff0219169083151502179055508173ffffffffffffffffffffffffffffffffffffffff163373ffffffffffffffffffffffffffffffffffffffff167f4b4f4a7018aa93cfbc56c507c1ad3b40f18153b6e51ee97628a7f57a2c1eac31600260006040516113e59291906147ea565b60405180910390a35050565b6060600280600481111561142e577f4e487b7100000000000000000000000000000000000000000000000000000000600052602160045260246000fd5b6000803373ffffffffffffffffffffffffffffffffffffffff1673ffffffffffffffffffffffffffffffffffffffff16815260200190815260200160002060009054906101000a900460ff1660048111156114b2577f4e487b7100000000000000000000000000000000000000000000000000000000600052602160045260246000fd5b146114f2576040517f08c379a00000000000000000000000000000000000000000000000000000000081526004016114e9906149b9565b60405180910390fd5b600360003373ffffffffffffffffffffffffffffffffffffffff1673ffffffffffffffffffffffffffffffffffffffff1681526020019081526020016000208054806020026020016040519081016040528092919081815260200182805480156115b157602002820191906000526020600020905b8160009054906101000a900473ffffffffffffffffffffffffffffffffffffffff1673ffffffffffffffffffffffffffffffffffffffff1681526020019060010190808311611567575b505050505091505090565b60048060048111156115f7577f4e487b7100000000000000000000000000000000000000000000000000000000600052602160045260246000fd5b6000803373ffffffffffffffffffffffffffffffffffffffff1673ffffffffffffffffffffffffffffffffffffffff16815260200190815260200160002060009054906101000a900460ff16600481111561167b577f4e487b7100000000000000000000000000000000000000000000000000000000600052602160045260246000fd5b146116bb576040517f08c379a00000000000000000000000000000000000000000000000000000000081526004016116b2906149b9565b60405180910390fd5b60006007600084815260200190815260200160002090506001600381111561170c577f4e487b7100000000000000000000000000000000000000000000000000000000600052602160045260246000fd5b8160050160019054906101000a900460ff166003811115611756577f4e487b7100000000000000000000000000000000000000000000000000000000600052602160045260246000fd5b14611796576040517f08c379a000000000000000000000000000000000000000000000000000000000815260040161178d90614959565b60405180910390fd5b600260008260010160009054906101000a900473ffffffffffffffffffffffffffffffffffffffff1673ffffffffffffffffffffffffffffffffffffffff1673ffffffffffffffffffffffffffffffffffffffff16815260200190815260200160002060003373ffffffffffffffffffffffffffffffffffffffff1673ffffffffffffffffffffffffffffffffffffffff16815260200190815260200160002060009054906101000a900460ff16611883576040517f08c379a000000000000000000000000000000000000000000000000000000000815260040161187a90614859565b60405180910390fd5b60028160050160016101000a81548160ff021916908360038111156118d1577f4e487b7100000000000000000000000000000000000000000000000000000000600052602160045260246000fd5b0217905550827f968c07757c229f315190fbce1a55070276e8f962073e641fc61140bece87cc9733604051611906919061470a565b60405180910390a2505050565b600180600481111561194e577f4e487b7100000000000000000000000000000000000000000000000000000000600052602160045260246000fd5b6000803373ffffffffffffffffffffffffffffffffffffffff1673ffffffffffffffffffffffffffffffffffffffff16815260200190815260200160002060009054906101000a900460ff1660048111156119d2577f4e487b7100000000000000000000000000000000000000000000000000000000600052602160045260246000fd5b14611a12576040517f08c379a0000000000000000000000000000000000000000000000000000000008152600401611a09906149b9565b60405180910390fd5b60036004811115611a4c577f4e487b7100000000000000000000000000000000000000000000000000000000600052602160045260246000fd5b6000808473ffffffffffffffffffffffffffffffffffffffff1673ffffffffffffffffffffffffffffffffffffffff16815260200190815260200160002060009054906101000a900460ff166004811115611ad0577f4e487b7100000000000000000000000000000000000000000000000000000000600052602160045260246000fd5b14611b10576040517f08c379a0000000000000000000000000000000000000000000000000000000008152600401611b07906148f9565b60405180910390fd5b6001600260003373ffffffffffffffffffffffffffffffffffffffff1673ffffffffffffffffffffffffffffffffffffffff16815260200190815260200160002060008473ffffffffffffffffffffffffffffffffffffffff1673ffffffffffffffffffffffffffffffffffffffff16815260200190815260200160002060006101000a81548160ff021916908315150217905550600560003373ffffffffffffffffffffffffffffffffffffffff1673ffffffffffffffffffffffffffffffffffffffff168152602001908152602001600020829080600181540180825580915050600190039060005260206000200160009091909190916101000a81548173ffffffffffffffffffffffffffffffffffffffff021916908373ffffffffffffffffffffffffffffffffffffffff1602179055508173ffffffffffffffffffffffffffffffffffffffff163373ffffffffffffffffffffffffffffffffffffffff167f4b4f4a7018aa93cfbc56c507c1ad3b40f18153b6e51ee97628a7f57a2c1eac3160036001604051611ca69291906147ea565b60405180910390a35050565b60036020528160005260406000208181548110611cce57600080fd5b906000526020600020016000915091509054906101000a900473ffffffffffffffffffffffffffffffffffffffff1681565b60006004811115611d3a577f4e487b7100000000000000000000000000000000000000000000000000000000600052602160045260246000fd5b6000803373ffffffffffffffffffffffffffffffffffffffff1673ffffffffffffffffffffffffffffffffffffffff16815260200190815260200160002060009054906101000a900460ff166004811115611dbe577f4e487b7100000000000000000000000000000000000000000000000000000000600052602160045260246000fd5b14611dfe576040517f08c379a0000000000000000000000000000000000000000000000000000000008152600401611df590614899565b60405180910390fd5b60036000803373ffffffffffffffffffffffffffffffffffffffff1673ffffffffffffffffffffffffffffffffffffffff16815260200190815260200160002060006101000a81548160ff02191690836004811115611e86577f4e487b7100000000000000000000000000000000000000000000000000000000600052602160045260246000fd5b02179055503373ffffffffffffffffffffffffffffffffffffffff167f89b4e995568c900aa52376cbed225dc1a013c9a43cb58186d69676ff593d7c4e6003604051611ed291906147cf565b60405180910390a2565b60066020528160005260406000208181548110611ef857600080fd5b906000526020600020016000915091509054906101000a900473ffffffffffffffffffffffffffffffffffffffff1681565b6003806004811115611f65577f4e487b7100000000000000000000000000000000000000000000000000000000600052602160045260246000fd5b6000803373ffffffffffffffffffffffffffffffffffffffff1673ffffffffffffffffffffffffffffffffffffffff16815260200190815260200160002060009054906101000a900460ff166004811115611fe9577f4e487b7100000000000000000000000000000000000000000000000000000000600052602160045260246000fd5b14612029576040517f08c379a0000000000000000000000000000000000000000000000000000000008152600401612020906149b9565b60405180910390fd5b6000600760008481526020019081526020016000209050600180811115612079577f4e487b7100000000000000000000000000000000000000000000000000000000600052602160045260246000fd5b8160050160009054906101000a900460ff1660018111156120c3577f4e487b7100000000000000000000000000000000000000000000000000000000600052602160045260246000fd5b14612103576040517f08c379a00000000000000000000000000000000000000000000000000000000081526004016120fa90614879565b60405180910390fd5b6000600381111561213d577f4e487b7100000000000000000000000000000000000000000000000000000000600052602160045260246000fd5b8160050160019054906101000a900460ff166003811115612187577f4e487b7100000000000000000000000000000000000000000000000000000000600052602160045260246000fd5b146121c7576040517f08c379a00000000000000000000000000000000000000000000000000000000081526004016121be906148b9565b60405180910390fd5b60018160050160016101000a81548160ff02191690836003811115612215577f4e487b7100000000000000000000000000000000000000000000000000000000600052602160045260246000fd5b0217905550827f4dfa1d399fc3d748dfe023239c274bdaa380853d97eec367121715b4659d7fdb3360405161224a919061470a565b60405180910390a2505050565b60006004811115612291577f4e487b7100000000000000000000000000000000000000000000000000000000600052602160045260246000fd5b6000803373ffffffffffffffffffffffffffffffffffffffff1673ffffffffffffffffffffffffffffffffffffffff16815260200190815260200160002060009054906101000a900460ff166004811115612315577f4e487b7100000000000000000000000000000000000000000000000000000000600052602160045260246000fd5b14612355576040517f08c379a000000000000000000000000000000000000000000000000000000000815260040161234c90614899565b60405180910390fd5b60026000803373ffffffffffffffffffffffffffffffffffffffff1673ffffffffffffffffffffffffffffffffffffffff16815260200190815260200160002060006101000a81548160ff021916908360048111156123dd577f4e487b7100000000000000000000000000000000000000000000000000000000600052602160045260246000fd5b02179055503373ffffffffffffffffffffffffffffffffffffffff167f89b4e995568c900aa52376cbed225dc1a013c9a43cb58186d69676ff593d7c4e600260405161242991906147cf565b60405180910390a2565b60008060006060600080600080600760008a8152602001908152602001600020905080600001548160010160009054906101000a900473ffffffffffffffffffffffffffffffffffffffff168260020160009054906101000a900473ffffffffffffffffffffffffffffffffffffffff168360030184600401548560050160009054906101000a900460ff168660050160019054906101000a900460ff168380546124dd90614c5b565b80601f016020809104026020016040519081016040528092919081815260200182805461250990614c5b565b80156125565780601f1061252b57610100808354040283529160200191612556565b820191906000526020600020905b81548152906001019060200180831161253957829003601f168201915b50505050509350975097509750975097509750975050919395979092949650565b60026020528160005260406000206020528060005260406000206000915091509054906101000a900460ff1681565b600960205281600052604060002081815481106125c257600080fd5b90600052602060002001600091509150505481565b60606003806004811115612614577f4e487b7100000000000000000000000000000000000000000000000000000000600052602160045260246000fd5b6000803373ffffffffffffffffffffffffffffffffffffffff1673ffffffffffffffffffffffffffffffffffffffff16815260200190815260200160002060009054906101000a900460ff166004811115612698577f4e487b7100000000000000000000000000000000000000000000000000000000600052602160045260246000fd5b146126d8576040517f08c379a00000000000000000000000000000000000000000000000000000000081526004016126cf906149b9565b60405180910390fd5b600260008473ffffffffffffffffffffffffffffffffffffffff1673ffffffffffffffffffffffffffffffffffffffff16815260200190815260200160002060003373ffffffffffffffffffffffffffffffffffffffff1673ffffffffffffffffffffffffffffffffffffffff16815260200190815260200160002060009054906101000a900460ff166127a1576040517f08c379a000000000000000000000000000000000000000000000000000000000815260040161279890614999565b60405180910390fd5b600960008473ffffffffffffffffffffffffffffffffffffffff1673ffffffffffffffffffffffffffffffffffffffff16815260200190815260200160002080548060200260200160405190810160405280929190818152602001828054801561282a57602002820191906000526020600020905b815481526020019060010190808311612816575b5050505050915050919050565b6002806004811115612872577f4e487b7100000000000000000000000000000000000000000000000000000000600052602160045260246000fd5b6000803373ffffffffffffffffffffffffffffffffffffffff1673ffffffffffffffffffffffffffffffffffffffff16815260200190815260200160002060009054906101000a900460ff1660048111156128f6577f4e487b7100000000000000000000000000000000000000000000000000000000600052602160045260246000fd5b14612936576040517f08c379a000000000000000000000000000000000000000000000000000000000815260040161292d906149b9565b60405180910390fd5b600260008573ffffffffffffffffffffffffffffffffffffffff1673ffffffffffffffffffffffffffffffffffffffff16815260200190815260200160002060003373ffffffffffffffffffffffffffffffffffffffff1673ffffffffffffffffffffffffffffffffffffffff16815260200190815260200160002060009054906101000a900460ff166129ff576040517f08c379a00000000000000000000000000000000000000000000000000000000081526004016129f6906149d9565b60405180910390fd5b60086000815480929190612a1290614c8d565b91905055506040518060e0016040528060085481526020018573ffffffffffffffffffffffffffffffffffffffff1681526020013373ffffffffffffffffffffffffffffffffffffffff16815260200184848080601f016020809104026020016040519081016040528093929190818152602001838380828437600081840152601f19601f82011690508083019250505050505050815260200142815260200160006001811115612aec577f4e487b7100000000000000000000000000000000000000000000000000000000600052602160045260246000fd5b815260200160006003811115612b2b577f4e487b7100000000000000000000000000000000000000000000000000000000600052602160045260246000fd5b8152506007600060085481526020019081526020016000206000820151816000015560208201518160010160006101000a81548173ffffffffffffffffffffffffffffffffffffffff021916908373ffffffffffffffffffffffffffffffffffffffff16021790555060408201518160020160006101000a81548173ffffffffffffffffffffffffffffffffffffffff021916908373ffffffffffffffffffffffffffffffffffffffff1602179055506060820151816003019080519060200190612bf7929190613e14565b506080820151816004015560a08201518160050160006101000a81548160ff02191690836001811115612c53577f4e487b7100000000000000000000000000000000000000000000000000000000600052602160045260246000fd5b021790555060c08201518160050160016101000a81548160ff02191690836003811115612ca9577f4e487b7100000000000000000000000000000000000000000000000000000000600052602160045260246000fd5b0217905550905050600960008573ffffffffffffffffffffffffffffffffffffffff1673ffffffffffffffffffffffffffffffffffffffff16815260200190815260200160002060085490806001815401808255809150506001900390600052602060002001600090919091909150556008547f71d940cbfc82410e0b18e63896ef651239da8c4875128cfa30d1637278d026708533604051612d4d929190614725565b60405180910390a250505050565b60016020528160005260406000208181548110612d7757600080fd5b90600052602060002001600091509150508054612d9390614c5b565b80601f0160208091040260200160405190810160405280929190818152602001828054612dbf90614c5b565b8015612e0c5780601f10612de157610100808354040283529160200191612e0c565b820191906000526020600020905b815481529060010190602001808311612def57829003601f168201915b505050505081565b60006020528060005260406000206000915054906101000a900460ff1681565b60006004811115612e6e577f4e487b7100000000000000000000000000000000000000000000000000000000600052602160045260246000fd5b6000803373ffffffffffffffffffffffffffffffffffffffff1673ffffffffffffffffffffffffffffffffffffffff16815260200190815260200160002060009054906101000a900460ff166004811115612ef2577f4e487b7100000000000000000000000000000000000000000000000000000000600052602160045260246000fd5b14612f32576040517f08c379a0000000000000000000000000000000000000000000000000000000008152600401612f2990614899565b60405180910390fd5b60016000803373ffffffffffffffffffffffffffffffffffffffff1673ffffffffffffffffffffffffffffffffffffffff16815260200190815260200160002060006101000a81548160ff02191690836004811115612fba577f4e487b7100000000000000000000000000000000000000000000000000000000600052602160045260246000fd5b02179055503373ffffffffffffffffffffffffffffffffffffffff167f89b4e995568c900aa52376cbed225dc1a013c9a43cb58186d69676ff593d7c4e600160405161300691906147cf565b60405180910390a2565b600180600481111561304b577f4e487b7100000000000000000000000000000000000000000000000000000000600052602160045260246000fd5b6000803373ffffffffffffffffffffffffffffffffffffffff1673ffffffffffffffffffffffffffffffffffffffff16815260200190815260200160002060009054906101000a900460ff1660048111156130cf577f4e487b7100000000000000000000000000000000000000000000000000000000600052602160045260246000fd5b1461310f576040517f08c379a0000000000000000000000000000000000000000000000000000000008152600401613106906149b9565b60405180910390fd5b600480811115613148577f4e487b7100000000000000000000000000000000000000000000000000000000600052602160045260246000fd5b6000808473ffffffffffffffffffffffffffffffffffffffff1673ffffffffffffffffffffffffffffffffffffffff16815260200190815260200160002060009054906101000a900460ff1660048111156131cc577f4e487b7100000000000000000000000000000000000000000000000000000000600052602160045260246000fd5b1461320c576040517f08c379a0000000000000000000000000000000000000000000000000000000008152600401613203906148d9565b60405180910390fd5b6001600260003373ffffffffffffffffffffffffffffffffffffffff1673ffffffffffffffffffffffffffffffffffffffff16815260200190815260200160002060008473ffffffffffffffffffffffffffffffffffffffff1673ffffffffffffffffffffffffffffffffffffffff16815260200190815260200160002060006101000a81548160ff021916908315150217905550600660003373ffffffffffffffffffffffffffffffffffffffff1673ffffffffffffffffffffffffffffffffffffffff168152602001908152602001600020829080600181540180825580915050600190039060005260206000200160009091909190916101000a81548173ffffffffffffffffffffffffffffffffffffffff021916908373ffffffffffffffffffffffffffffffffffffffff1602179055508173ffffffffffffffffffffffffffffffffffffffff163373ffffffffffffffffffffffffffffffffffffffff167f4b4f4a7018aa93cfbc56c507c1ad3b40f18153b6e51ee97628a7f57a2c1eac31600460016040516133a29291906147ea565b60405180910390a35050565b60608173ffffffffffffffffffffffffffffffffffffffff163373ffffffffffffffffffffffffffffffffffffffff1614806134705750600260008373ffffffffffffffffffffffffffffffffffffffff1673ffffffffffffffffffffffffffffffffffffffff16815260200190815260200160002060003373ffffffffffffffffffffffffffffffffffffffff1673ffffffffffffffffffffffffffffffffffffffff16815260200190815260200160002060009054906101000a900460ff165b6134af576040517f08c379a00000000000000000000000000000000000000000000000000000000081526004016134a690614999565b60405180910390fd5b600160008373ffffffffffffffffffffffffffffffffffffffff1673ffffffffffffffffffffffffffffffffffffffff168152602001908152602001600020805480602002602001604051908101604052809291908181526020016000905b828210156135ba57838290600052602060002001805461352d90614c5b565b80601f016020809104026020016040519081016040528092919081815260200182805461355990614c5b565b80156135a65780601f1061357b576101008083540402835291602001916135a6565b820191906000526020600020905b81548152906001019060200180831161358957829003601f168201915b50505050508152602001906001019061350e565b505050509050919050565b60085481565b600560205281600052604060002081815481106135e757600080fd5b906000526020600020016000915091509054906101000a900473ffffffffffffffffffffffffffffffffffffffff1681565b6004602052816000526040600020818154811061363557600080fd5b906000526020600020016000915091509054906101000a900473ffffffffffffffffffffffffffffffffffffffff1681565b60018060048111156136a2577f4e487b7100000000000000000000000000000000000000000000000000000000600052602160045260246000fd5b6000803373ffffffffffffffffffffffffffffffffffffffff1673ffffffffffffffffffffffffffffffffffffffff16815260200190815260200160002060009054906101000a900460ff166004811115613726577f4e487b7100000000000000000000000000000000000000000000000000000000600052602160045260246000fd5b14613766576040517f08c379a000000000000000000000000000000000000000000000000000000000815260040161375d906149b9565b60405180910390fd5b6000600260003373ffffffffffffffffffffffffffffffffffffffff1673ffffffffffffffffffffffffffffffffffffffff16815260200190815260200160002060008473ffffffffffffffffffffffffffffffffffffffff1673ffffffffffffffffffffffffffffffffffffffff16815260200190815260200160002060006101000a81548160ff0219169083151502179055508173ffffffffffffffffffffffffffffffffffffffff163373ffffffffffffffffffffffffffffffffffffffff167f4b4f4a7018aa93cfbc56c507c1ad3b40f18153b6e51ee97628a7f57a2c1eac316004600060405161385c9291906147ea565b60405180910390a35050565b60018060048111156138a3577f4e487b7100000000000000000000000000000000000000000000000000000000600052602160045260246000fd5b6000803373ffffffffffffffffffffffffffffffffffffffff1673ffffffffffffffffffffffffffffffffffffffff16815260200190815260200160002060009054906101000a900460ff166004811115613927577f4e487b7100000000000000000000000000000000000000000000000000000000600052602160045260246000fd5b14613967576040517f08c379a000000000000000000000000000000000000000000000000000000000815260040161395e906149b9565b60405180910390fd5b6000600260003373ffffffffffffffffffffffffffffffffffffffff1673ffffffffffffffffffffffffffffffffffffffff16815260200190815260200160002060008473ffffffffffffffffffffffffffffffffffffffff1673ffffffffffffffffffffffffffffffffffffffff16815260200190815260200160002060006101000a81548160ff0219169083151502179055508173ffffffffffffffffffffffffffffffffffffffff163373ffffffffffffffffffffffffffffffffffffffff167f4b4f4a7018aa93cfbc56c507c1ad3b40f18153b6e51ee97628a7f57a2c1eac3160036000604051613a5d9291906147ea565b60405180910390a35050565b60006004811115613aa3577f4e487b7100000000000000000000000000000000000000000000000000000000600052602160045260246000fd5b6000803373ffffffffffffffffffffffffffffffffffffffff1673ffffffffffffffffffffffffffffffffffffffff16815260200190815260200160002060009054906101000a900460ff166004811115613b27577f4e487b7100000000000000000000000000000000000000000000000000000000600052602160045260246000fd5b14613b67576040517f08c379a0000000000000000000000000000000000000000000000000000000008152600401613b5e90614899565b60405180910390fd5b60046000803373ffffffffffffffffffffffffffffffffffffffff1673ffffffffffffffffffffffffffffffffffffffff16815260200190815260200160002060006101000a81548160ff02191690836004811115613bef577f4e487b7100000000000000000000000000000000000000000000000000000000600052602160045260246000fd5b02179055503373ffffffffffffffffffffffffffffffffffffffff167f89b4e995568c900aa52376cbed225dc1a013c9a43cb58186d69676ff593d7c4e6004604051613c3b91906147cf565b60405180910390a2565b6001806004811115613c80577f4e487b7100000000000000000000000000000000000000000000000000000000600052602160045260246000fd5b6000803373ffffffffffffffffffffffffffffffffffffffff1673ffffffffffffffffffffffffffffffffffffffff16815260200190815260200160002060009054906101000a900460ff166004811115613d04577f4e487b7100000000000000000000000000000000000000000000000000000000600052602160045260246000fd5b14613d44576040517f08c379a0000000000000000000000000000000000000000000000000000000008152600401613d3b906149b9565b60405180910390fd5b600160003373ffffffffffffffffffffffffffffffffffffffff1673ffffffffffffffffffffffffffffffffffffffff168152602001908152602001600020838390918060018154018082558091505060019003906000526020600020016000909192909192909192909192509190613dbe929190613e9a565b503373ffffffffffffffffffffffffffffffffffffffff167f381664328a13775cdca4159b54873d48827358a58c62dac10944c743ecb7ad9b8484604051613e07929190614813565b60405180910390a2505050565b828054613e2090614c5b565b90600052602060002090601f016020900481019282613e425760008555613e89565b82601f10613e5b57805160ff1916838001178555613e89565b82800160010185558215613e89579182015b82811115613e88578251825591602001919060010190613e6d565b5b509050613e969190613f20565b5090565b828054613ea690614c5b565b90600052602060002090601f016020900481019282613ec85760008555613f0f565b82601f10613ee157803560ff1916838001178555613f0f565b82800160010185558215613f0f579182015b82811115613f0e578235825591602001919060010190613ef3565b5b509050613f1c9190613f20565b5090565b5b80821115613f39576000816000905550600101613f21565b5090565b600081359050613f4c81614db0565b92915050565b60008083601f840112613f6457600080fd5b8235905067ffffffffffffffff811115613f7d57600080fd5b602083019150836001820283011115613f9557600080fd5b9250929050565b600081359050613fab81614dc7565b92915050565b600060208284031215613fc357600080fd5b6000613fd184828501613f3d565b91505092915050565b60008060408385031215613fed57600080fd5b6000613ffb85828601613f3d565b925050602061400c85828601613f3d565b9150509250929050565b60008060006040848603121561402b57600080fd5b600061403986828701613f3d565b935050602084013567ffffffffffffffff81111561405657600080fd5b61406286828701613f52565b92509250509250925092565b6000806040838503121561408157600080fd5b600061408f85828601613f3d565b92505060206140a085828601613f9c565b9150509250929050565b600080602083850312156140bd57600080fd5b600083013567ffffffffffffffff8111156140d757600080fd5b6140e385828601613f52565b92509250509250929050565b60006020828403121561410157600080fd5b600061410f84828501613f9c565b91505092915050565b6000614124838361415c565b60208301905092915050565b600061413c8383614314565b905092915050565b600061415083836146ec565b60208301905092915050565b61416581614b62565b82525050565b61417481614b62565b82525050565b600061418582614aba565b61418f8185614b0d565b935061419a83614a8a565b8060005b838110156141cb5781516141b28882614118565b97506141bd83614ae6565b92505060018101905061419e565b5085935050505092915050565b60006141e382614ac5565b6141ed8185614b1e565b9350836020820285016141ff85614a9a565b8060005b8581101561423b578484038952815161421c8582614130565b945061422783614af3565b925060208a01995050600181019050614203565b50829750879550505050505092915050565b600061425882614ad0565b6142628185614b2f565b935061426d83614aaa565b8060005b8381101561429e5781516142858882614144565b975061429083614b00565b925050600181019050614271565b5085935050505092915050565b6142b481614b74565b82525050565b6142c381614be3565b82525050565b6142d281614bf5565b82525050565b6142e181614c07565b82525050565b60006142f38385614b51565b9350614300838584614c19565b61430983614d63565b840190509392505050565b600061431f82614adb565b6143298185614b40565b9350614339818560208601614c28565b61434281614d63565b840191505092915050565b600061435882614adb565b6143628185614b51565b9350614372818560208601614c28565b61437b81614d63565b840191505092915050565b6000614393601f83614b51565b91507f496e7375726572206e6f7420617070726f7665642062792070617469656e74006000830152602082019050919050565b60006143d3601183614b51565b91507f4e6f742064697370656e736564207965740000000000000000000000000000006000830152602082019050919050565b6000614413601283614b51565b91507f416c7265616479207265676973746572656400000000000000000000000000006000830152602082019050919050565b6000614453601783614b51565b91507f436c61696d20616c7265616479207375626d69747465640000000000000000006000830152602082019050919050565b6000614493600e83614b51565b91507f4e6f7420616e20696e73757265720000000000000000000000000000000000006000830152602082019050919050565b60006144d3601083614b51565b91507f4e6f74206120706861726d6163697374000000000000000000000000000000006000830152602082019050919050565b6000614513602283614b51565b91507f506861726d6163697374206e6f7420617070726f76656420627920706174696560008301527f6e740000000000000000000000000000000000000000000000000000000000006020830152604082019050919050565b6000614579600c83614b51565b91507f4e6f74206120646f63746f7200000000000000000000000000000000000000006000830152602082019050919050565b60006145b9601083614b51565b91507f4e6f2070656e64696e6720636c61696d000000000000000000000000000000006000830152602082019050919050565b60006145f9601183614b51565b91507f416c72656164792064697370656e7365640000000000000000000000000000006000830152602082019050919050565b6000614639600d83614b51565b91507f4163636573732064656e696564000000000000000000000000000000000000006000830152602082019050919050565b6000614679600e83614b51565b91507f4e6f7420617574686f72697a65640000000000000000000000000000000000006000830152602082019050919050565b60006146b9601e83614b51565b91507f446f63746f72206e6f7420617070726f7665642062792070617469656e7400006000830152602082019050919050565b6146f581614bd9565b82525050565b61470481614bd9565b82525050565b600060208201905061471f600083018461416b565b92915050565b600060408201905061473a600083018561416b565b614747602083018461416b565b9392505050565b60006020820190508181036000830152614768818461417a565b905092915050565b6000602082019050818103600083015261478a81846141d8565b905092915050565b600060208201905081810360008301526147ac818461424d565b905092915050565b60006020820190506147c960008301846142ab565b92915050565b60006020820190506147e460008301846142d8565b92915050565b60006040820190506147ff60008301856142d8565b61480c60208301846142ab565b9392505050565b6000602082019050818103600083015261482e8184866142e7565b90509392505050565b60006020820190508181036000830152614851818461434d565b905092915050565b6000602082019050818103600083015261487281614386565b9050919050565b60006020820190508181036000830152614892816143c6565b9050919050565b600060208201905081810360008301526148b281614406565b9050919050565b600060208201905081810360008301526148d281614446565b9050919050565b600060208201905081810360008301526148f281614486565b9050919050565b60006020820190508181036000830152614912816144c6565b9050919050565b6000602082019050818103600083015261493281614506565b9050919050565b600060208201905081810360008301526149528161456c565b9050919050565b60006020820190508181036000830152614972816145ac565b9050919050565b60006020820190508181036000830152614992816145ec565b9050919050565b600060208201905081810360008301526149b28161462c565b9050919050565b600060208201905081810360008301526149d28161466c565b9050919050565b600060208201905081810360008301526149f2816146ac565b9050919050565b6000602082019050614a0e60008301846146fb565b92915050565b600060e082019050614a29600083018a6146fb565b614a36602083018961416b565b614a43604083018861416b565b8181036060830152614a55818761434d565b9050614a6460808301866146fb565b614a7160a08301856142c9565b614a7e60c08301846142ba565b98975050505050505050565b6000819050602082019050919050565b6000819050602082019050919050565b6000819050602082019050919050565b600081519050919050565b600081519050919050565b600081519050919050565b600081519050919050565b6000602082019050919050565b6000602082019050919050565b6000602082019050919050565b600082825260208201905092915050565b600082825260208201905092915050565b600082825260208201905092915050565b600082825260208201905092915050565b600082825260208201905092915050565b6000614b6d82614bb9565b9050919050565b60008115159050919050565b6000819050614b8e82614d74565b919050565b6000819050614ba182614d88565b919050565b6000819050614bb482614d9c565b919050565b600073ffffffffffffffffffffffffffffffffffffffff82169050919050565b6000819050919050565b6000614bee82614b80565b9050919050565b6000614c0082614b93565b9050919050565b6000614c1282614ba6565b9050919050565b82818337600083830152505050565b60005b83811015614c46578082015181840152602081019050614c2b565b83811115614c55576000848401525b50505050565b60006002820490506001821680614c7357607f821691505b60208210811415614c8757614c86614d34565b5b50919050565b6000614c9882614bd9565b91507fffffffffffffffffffffffffffffffffffffffffffffffffffffffffffffffff821415614ccb57614cca614cd6565b5b600182019050919050565b7f4e487b7100000000000000000000000000000000000000000000000000000000600052601160045260246000fd5b7f4e487b7100000000000000000000000000000000000000000000000000000000600052602160045260246000fd5b7f4e487b7100000000000000000000000000000000000000000000000000000000600052602260045260246000fd5b6000601f19601f8301169050919050565b60048110614d8557614d84614d05565b5b50565b60028110614d9957614d98614d05565b5b50565b60058110614dad57614dac614d05565b5b50565b614db981614b62565b8114614dc457600080fd5b50565b614dd081614bd9565b8114614ddb57600080fd5b5056fea2646970667358221220b87b390d88e21fbb2e911b5383c916dcd6897a51a8ed73443b0031f03adbe69d64736f6c63430008000033",
  "linkReferences": {},
  "deployedLinkReferences": {}
}